{
  "_format": "hh-sol-artifact-1",
  "contractName": "BugBounty",
  "sourceName": "contracts/BugBounty.sol",
  "abi": [
    {
      "anonymous": false,
      "inputs": [
        {
          "indexed": true,
          "internalType": "uint256",
          "name": "answerId",
          "type": "uint256"
        },
        {
          "indexed": true,
          "internalType": "uint256",
          "name": "questionId",
          "type": "uint256"
        },
        {
          "indexed": true,
          "internalType": "address",
          "name": "solver",
          "type": "address"
        },
        {
          "indexed": false,
          "internalType": "string",
          "name": "summary",
          "type": "string"
        }
      ],
      "name": "AnswerSubmitted",
      "type": "event"
    },
    {
      "anonymous": false,
      "inputs": [
        {
          "indexed": true,
          "internalType": "uint256",
          "name": "questionId",
          "type": "uint256"
        },
        {
          "indexed": true,
          "internalType": "uint256",
          "name": "answerId",
          "type": "uint256"
        },
        {
          "indexed": true,
          "internalType": "address",
          "name": "solver",
          "type": "address"
        },
        {
          "indexed": false,
          "internalType": "uint256",
          "name": "amountPaid",
          "type": "uint256"
        }
      ],
      "name": "AnswerUnlocked",
      "type": "event"
    },
    {
      "anonymous": false,
      "inputs": [
        {
          "indexed": true,
          "internalType": "uint256",
          "name": "questionId",
          "type": "uint256"
        },
        {
          "indexed": true,
          "internalType": "address",
          "name": "author",
          "type": "address"
        },
        {
          "indexed": false,
          "internalType": "uint256",
          "name": "bountyAmount",
          "type": "uint256"
        },
        {
          "indexed": false,
          "internalType": "string",
          "name": "ipfsCID",
          "type": "string"
        }
      ],
      "name": "QuestionCreated",
      "type": "event"
    },
    {
      "inputs": [],
      "name": "answerCount",
      "outputs": [
        {
          "internalType": "uint256",
          "name": "",
          "type": "uint256"
        }
      ],
      "stateMutability": "view",
      "type": "function"
    },
    {
      "inputs": [
        {
          "internalType": "uint256",
          "name": "",
          "type": "uint256"
        }
      ],
      "name": "answers",
      "outputs": [
        {
          "internalType": "uint256",
          "name": "id",
          "type": "uint256"
        },
        {
          "internalType": "uint256",
          "name": "questionId",
          "type": "uint256"
        },
        {
          "internalType": "address",
          "name": "solver",
          "type": "address"
        },
        {
          "internalType": "string",
          "name": "encryptedAnswerCID",
          "type": "string"
        },
        {
          "internalType": "string",
          "name": "summary",
          "type": "string"
        },
        {
          "internalType": "bool",
          "name": "isUnlocked",
          "type": "bool"
        }
      ],
      "stateMutability": "view",
      "type": "function"
    },
    {
      "inputs": [
        {
          "internalType": "string",
          "name": "_ipfsCID",
          "type": "string"
        },
        {
          "internalType": "uint256",
          "name": "_bountyAmount",
          "type": "uint256"
        }
      ],
      "name": "createQuestion",
      "outputs": [],
      "stateMutability": "nonpayable",
      "type": "function"
    },
    {
      "inputs": [
        {
          "internalType": "uint256",
          "name": "",
          "type": "uint256"
        },
        {
          "internalType": "uint256",
          "name": "_answerId",
          "type": "uint256"
        }
      ],
      "name": "isUnlocked",
      "outputs": [
        {
          "internalType": "bool",
          "name": "",
          "type": "bool"
        }
      ],
      "stateMutability": "view",
      "type": "function"
    },
    {
      "inputs": [],
      "name": "questionCount",
      "outputs": [
        {
          "internalType": "uint256",
          "name": "",
          "type": "uint256"
        }
      ],
      "stateMutability": "view",
      "type": "function"
    },
    {
      "inputs": [
        {
          "internalType": "uint256",
          "name": "",
          "type": "uint256"
        }
      ],
      "name": "questions",
      "outputs": [
        {
          "internalType": "uint256",
          "name": "id",
          "type": "uint256"
        },
        {
          "internalType": "address",
          "name": "author",
          "type": "address"
        },
        {
          "internalType": "uint256",
          "name": "bountyAmount",
          "type": "uint256"
        },
        {
          "internalType": "string",
          "name": "ipfsCID",
          "type": "string"
        },
        {
          "internalType": "bool",
          "name": "isResolved",
          "type": "bool"
        }
      ],
      "stateMutability": "view",
      "type": "function"
    },
    {
      "inputs": [
        {
          "internalType": "uint256",
          "name": "_questionId",
          "type": "uint256"
        },
        {
          "internalType": "string",
          "name": "_encryptedAnswerCID",
          "type": "string"
        },
        {
          "internalType": "string",
          "name": "_summary",
          "type": "string"
        }
      ],
      "name": "submitAnswer",
      "outputs": [],
      "stateMutability": "nonpayable",
      "type": "function"
    },
    {
      "inputs": [
        {
          "internalType": "uint256",
          "name": "_questionId",
          "type": "uint256"
        },
        {
          "internalType": "uint256",
          "name": "_answerId",
          "type": "uint256"
        }
      ],
      "name": "unlockAnswer",
      "outputs": [],
      "stateMutability": "payable",
      "type": "function"
    }
  ],
  "bytecode": "0x608060405234801561001057600080fd5b50611981806100206000396000f3fe60806040526004361061007b5760003560e01c80631cd276cc1161004e5780631cd276cc1461014157806331b1b9781461015d57806371959d691461019e578063a2fcd184146101c75761007b565b80630af9736e146100805780630bed0502146100a95780631468aa2c146100d457806317599cc5146100ff575b600080fd5b34801561008c57600080fd5b506100a760048036038101906100a29190610e67565b610204565b005b3480156100b557600080fd5b506100be6103cd565b6040516100cb9190610f01565b60405180910390f35b3480156100e057600080fd5b506100e96103d3565b6040516100f69190610f01565b60405180910390f35b34801561010b57600080fd5b5061012660048036038101906101219190610f1c565b6103d9565b60405161013896959493929190611024565b60405180910390f35b61015b60048036038101906101569190611093565b610552565b005b34801561016957600080fd5b50610184600480360381019061017f9190610f1c565b610a13565b6040516101959594939291906110d3565b60405180910390f35b3480156101aa57600080fd5b506101c560048036038101906101c0919061112d565b610afe565b005b3480156101d357600080fd5b506101ee60048036038101906101e99190611093565b610c56565b6040516101fb9190611189565b60405180910390f35b8260008111801561021757506000548111155b610256576040517f08c379a000000000000000000000000000000000000000000000000000000000815260040161024d906111f0565b60405180910390fd5b600160008154809291906102699061123f565b91905055506040518060c0016040528060015481526020018581526020013373ffffffffffffffffffffffffffffffffffffffff16815260200184815260200183815260200160001515815250600360006001548152602001908152602001600020600082015181600001556020820151816001015560408201518160020160006101000a81548173ffffffffffffffffffffffffffffffffffffffff021916908373ffffffffffffffffffffffffffffffffffffffff160217905550606082015181600301908161033b9190611493565b5060808201518160040190816103519190611493565b5060a08201518160050160006101000a81548160ff0219169083151502179055509050503373ffffffffffffffffffffffffffffffffffffffff16846001547f1b72a809869907cac4c4e55b8bf6920ff492d2ff53307bb77ba492366b61387c856040516103bf9190611565565b60405180910390a450505050565b60015481565b60005481565b60036020528060005260406000206000915090508060000154908060010154908060020160009054906101000a900473ffffffffffffffffffffffffffffffffffffffff169080600301805461042e906112b6565b80601f016020809104026020016040519081016040528092919081815260200182805461045a906112b6565b80156104a75780601f1061047c576101008083540402835291602001916104a7565b820191906000526020600020905b81548152906001019060200180831161048a57829003601f168201915b5050505050908060040180546104bc906112b6565b80601f01602080910402602001604051908101604052809291908181526020018280546104e8906112b6565b80156105355780601f1061050a57610100808354040283529160200191610535565b820191906000526020600020905b81548152906001019060200180831161051857829003601f168201915b5050505050908060050160009054906101000a900460ff16905086565b8160008111801561056557506000548111155b6105a4576040517f08c379a000000000000000000000000000000000000000000000000000000000815260040161059b906111f0565b60405180910390fd5b816000811180156105b757506001548111155b6105f6576040517f08c379a00000000000000000000000000000000000000000000000000000000081526004016105ed906115d3565b60405180910390fd5b833373ffffffffffffffffffffffffffffffffffffffff166002600083815260200190815260200160002060010160009054906101000a900473ffffffffffffffffffffffffffffffffffffffff1673ffffffffffffffffffffffffffffffffffffffff161461069b576040517f08c379a000000000000000000000000000000000000000000000000000000000815260040161069290611665565b60405180910390fd5b600060026000878152602001908152602001600020905060006003600087815260200190815260200160002090508060050160009054906101000a900460ff161561071b576040517f08c379a0000000000000000000000000000000000000000000000000000000008152600401610712906116d1565b60405180910390fd5b8160040160009054906101000a900460ff161561076d576040517f08c379a00000000000000000000000000000000000000000000000000000000081526004016107649061173d565b60405180910390fd5b81600201543410156107b4576040517f08c379a00000000000000000000000000000000000000000000000000000000081526004016107ab906117a9565b60405180910390fd5b60018160050160006101000a81548160ff02191690831515021790555060018260040160006101000a81548160ff02191690831515021790555060008160020160009054906101000a900473ffffffffffffffffffffffffffffffffffffffff1673ffffffffffffffffffffffffffffffffffffffff16836002015460405161083c906117fa565b60006040518083038185875af1925050503d8060008114610879576040519150601f19603f3d011682016040523d82523d6000602084013e61087e565b606091505b50509050806108c2576040517f08c379a00000000000000000000000000000000000000000000000000000000081526004016108b99061185b565b60405180910390fd5b82600201543411156109915760008360020154346108e0919061187b565b905060003373ffffffffffffffffffffffffffffffffffffffff1682604051610908906117fa565b60006040518083038185875af1925050503d8060008114610945576040519150601f19603f3d011682016040523d82523d6000602084013e61094a565b606091505b505090508061098e576040517f08c379a0000000000000000000000000000000000000000000000000000000008152600401610985906118fb565b60405180910390fd5b50505b8160020160009054906101000a900473ffffffffffffffffffffffffffffffffffffffff1673ffffffffffffffffffffffffffffffffffffffff1687897f5002b83a01b216ba36d2ae1820b35b7e47f40e9580d83f31a95fbe55e98708d28660020154604051610a019190610f01565b60405180910390a45050505050505050565b60026020528060005260406000206000915090508060000154908060010160009054906101000a900473ffffffffffffffffffffffffffffffffffffffff1690806002015490806003018054610a68906112b6565b80601f0160208091040260200160405190810160405280929190818152602001828054610a94906112b6565b8015610ae15780601f10610ab657610100808354040283529160200191610ae1565b820191906000526020600020905b815481529060010190602001808311610ac457829003601f168201915b5050505050908060040160009054906101000a900460ff16905085565b600080815480929190610b109061123f565b91905055506040518060a0016040528060005481526020013373ffffffffffffffffffffffffffffffffffffffff1681526020018281526020018381526020016000151581525060026000805481526020019081526020016000206000820151816000015560208201518160010160006101000a81548173ffffffffffffffffffffffffffffffffffffffff021916908373ffffffffffffffffffffffffffffffffffffffff160217905550604082015181600201556060820151816003019081610bdb9190611493565b5060808201518160040160006101000a81548160ff0219169083151502179055509050503373ffffffffffffffffffffffffffffffffffffffff166000547f7104370110cc339bfa2796448301b254f8e052b8041efa2e1ec1eee5e7be3a4d8385604051610c4a92919061191b565b60405180910390a35050565b600081600081118015610c6b57506001548111155b610caa576040517f08c379a0000000000000000000000000000000000000000000000000000000008152600401610ca1906115d3565b60405180910390fd5b6003600084815260200190815260200160002060050160009054906101000a900460ff1691505092915050565b6000604051905090565b600080fd5b600080fd5b6000819050919050565b610cfe81610ceb565b8114610d0957600080fd5b50565b600081359050610d1b81610cf5565b92915050565b600080fd5b600080fd5b6000601f19601f8301169050919050565b7f4e487b7100000000000000000000000000000000000000000000000000000000600052604160045260246000fd5b610d7482610d2b565b810181811067ffffffffffffffff82111715610d9357610d92610d3c565b5b80604052505050565b6000610da6610cd7565b9050610db28282610d6b565b919050565b600067ffffffffffffffff821115610dd257610dd1610d3c565b5b610ddb82610d2b565b9050602081019050919050565b82818337600083830152505050565b6000610e0a610e0584610db7565b610d9c565b905082815260208101848484011115610e2657610e25610d26565b5b610e31848285610de8565b509392505050565b600082601f830112610e4e57610e4d610d21565b5b8135610e5e848260208601610df7565b91505092915050565b600080600060608486031215610e8057610e7f610ce1565b5b6000610e8e86828701610d0c565b935050602084013567ffffffffffffffff811115610eaf57610eae610ce6565b5b610ebb86828701610e39565b925050604084013567ffffffffffffffff811115610edc57610edb610ce6565b5b610ee886828701610e39565b9150509250925092565b610efb81610ceb565b82525050565b6000602082019050610f166000830184610ef2565b92915050565b600060208284031215610f3257610f31610ce1565b5b6000610f4084828501610d0c565b91505092915050565b600073ffffffffffffffffffffffffffffffffffffffff82169050919050565b6000610f7482610f49565b9050919050565b610f8481610f69565b82525050565b600081519050919050565b600082825260208201905092915050565b60005b83811015610fc4578082015181840152602081019050610fa9565b60008484015250505050565b6000610fdb82610f8a565b610fe58185610f95565b9350610ff5818560208601610fa6565b610ffe81610d2b565b840191505092915050565b60008115159050919050565b61101e81611009565b82525050565b600060c0820190506110396000830189610ef2565b6110466020830188610ef2565b6110536040830187610f7b565b81810360608301526110658186610fd0565b905081810360808301526110798185610fd0565b905061108860a0830184611015565b979650505050505050565b600080604083850312156110aa576110a9610ce1565b5b60006110b885828601610d0c565b92505060206110c985828601610d0c565b9150509250929050565b600060a0820190506110e86000830188610ef2565b6110f56020830187610f7b565b6111026040830186610ef2565b81810360608301526111148185610fd0565b90506111236080830184611015565b9695505050505050565b6000806040838503121561114457611143610ce1565b5b600083013567ffffffffffffffff81111561116257611161610ce6565b5b61116e85828601610e39565b925050602061117f85828601610d0c565b9150509250929050565b600060208201905061119e6000830184611015565b92915050565b7f5175657374696f6e20646f6573206e6f74206578697374000000000000000000600082015250565b60006111da601783610f95565b91506111e5826111a4565b602082019050919050565b60006020820190508181036000830152611209816111cd565b9050919050565b7f4e487b7100000000000000000000000000000000000000000000000000000000600052601160045260246000fd5b600061124a82610ceb565b91507fffffffffffffffffffffffffffffffffffffffffffffffffffffffffffffffff820361127c5761127b611210565b5b600182019050919050565b7f4e487b7100000000000000000000000000000000000000000000000000000000600052602260045260246000fd5b600060028204905060018216806112ce57607f821691505b6020821081036112e1576112e0611287565b5b50919050565b60008190508160005260206000209050919050565b60006020601f8301049050919050565b600082821b905092915050565b6000600883026113497fffffffffffffffffffffffffffffffffffffffffffffffffffffffffffffffff8261130c565b611353868361130c565b95508019841693508086168417925050509392505050565b6000819050919050565b600061139061138b61138684610ceb565b61136b565b610ceb565b9050919050565b6000819050919050565b6113aa83611375565b6113be6113b682611397565b848454611319565b825550505050565b600090565b6113d36113c6565b6113de8184846113a1565b505050565b5b81811015611402576113f76000826113cb565b6001810190506113e4565b5050565b601f82111561144757611418816112e7565b611421846112fc565b81016020851015611430578190505b61144461143c856112fc565b8301826113e3565b50505b505050565b600082821c905092915050565b600061146a6000198460080261144c565b1980831691505092915050565b60006114838383611459565b9150826002028217905092915050565b61149c82610f8a565b67ffffffffffffffff8111156114b5576114b4610d3c565b5b6114bf82546112b6565b6114ca828285611406565b600060209050601f8311600181146114fd57600084156114eb578287015190505b6114f58582611477565b86555061155d565b601f19841661150b866112e7565b60005b828110156115335784890151825560018201915060208501945060208101905061150e565b86831015611550578489015161154c601f891682611459565b8355505b6001600288020188555050505b505050505050565b6000602082019050818103600083015261157f8184610fd0565b905092915050565b7f416e7377657220646f6573206e6f742065786973740000000000000000000000600082015250565b60006115bd601583610f95565b91506115c882611587565b602082019050919050565b600060208201905081810360008301526115ec816115b0565b9050919050565b7f4f6e6c792074686520617574686f722063616e20706572666f726d207468697360008201527f20616374696f6e00000000000000000000000000000000000000000000000000602082015250565b600061164f602783610f95565b915061165a826115f3565b604082019050919050565b6000602082019050818103600083015261167e81611642565b9050919050565b7f416e7377657220697320616c726561647920756e6c6f636b6564000000000000600082015250565b60006116bb601a83610f95565b91506116c682611685565b602082019050919050565b600060208201905081810360008301526116ea816116ae565b9050919050565b7f5175657374696f6e20697320616c7265616479207265736f6c76656400000000600082015250565b6000611727601c83610f95565b9150611732826116f1565b602082019050919050565b600060208201905081810360008301526117568161171a565b9050919050565b7f496e73756666696369656e74207061796d656e7420666f7220626f756e747900600082015250565b6000611793601f83610f95565b915061179e8261175d565b602082019050919050565b600060208201905081810360008301526117c281611786565b9050919050565b600081905092915050565b50565b60006117e46000836117c9565b91506117ef826117d4565b600082019050919050565b6000611805826117d7565b9150819050919050565b7f5472616e7366657220746f20736f6c766572206661696c656400000000000000600082015250565b6000611845601983610f95565b91506118508261180f565b602082019050919050565b6000602082019050818103600083015261187481611838565b9050919050565b600061188682610ceb565b915061189183610ceb565b92508282039050818111156118a9576118a8611210565b5b92915050565b7f526566756e6420746f20617574686f72206661696c6564000000000000000000600082015250565b60006118e5601783610f95565b91506118f0826118af565b602082019050919050565b60006020820190508181036000830152611914816118d8565b9050919050565b60006040820190506119306000830185610ef2565b81810360208301526119428184610fd0565b9050939250505056fea2646970667358221220465e967dc579d4bf3743187343afb2b0577f0823190f2862e04305a674bb5ebf64736f6c63430008180033",
  "linkReferences": {},
  "deployedLinkReferences": {}
}